:100000000C9434000C9449000C9449000C94490061
:100010000C9449000C9449000C9449000C9449003C
:100020000C9449000C9449000C9449000C9449002C
:100030000C9449000C9449000C9449000C9449001C
:100040000C9449000C9449000C9449000C9449000C
:100050000C9449000C9449000C9449000C944900FC
:100060000C9449000C94490011241FBECFEFD8E036
:10007000DEBFCDBF11E0A0E0B1E0E4E0F1E002C0FE
:1000800005900D92A830B107D9F70E947B000C941F
:1000900080000C9400008AB188668AB90895CF93D5
:1000A000DF9300D000D000D00F92CDB7DEB787E04D
:1000B000E0E0F1E0DE01119601900D928A95E1F702
:1000C000FE013196CE01089621912BB92FEF33ED29
:1000D00040E3215030404040E1F700C00000E81705
:1000E000F90791F727960FB6F894DEBF0FBECDBF84
:1000F000DF91CF9108950E944B000E944F00FDCFE9
:04010000F894FFCFA1
:08010400204008604828680053
:00000001FF
