:100000000C9434000C9449000C9449000C94490061
:100010000C9449000C9449000C9449000C9449003C
:100020000C9449000C9449000C9449000C94B100C4
:100030000C9449000C9449000C9449000C9449001C
:100040000C9449000C9449000C9449000C9449000C
:100050000C9449000C9449000C9449000C944900FC
:100060000C9449000C94490011241FBECFEFD8E036
:10007000DEBFCDBF11E0A0E0B1E0E2ECF1E002C0F4
:1000800005900D92A031B107D9F70E94D7000C94CA
:10009000DF000C9400001092C50080E18093C40042
:1000A000E1ECF0E0808188608083E2EC80818F77F2
:1000B000808380818F7B808380818F7D808380811E
:1000C0008F7E80838081877F808380818B7F808308
:1000D000808184608083808182608083E0EC808185
:1000E000826080830895E1E8F0E08081846080830D
:1000F00080818D7F8083808181608083A0E8B0E0F3
:100100008C9180648C938C918F778C9380818F7E7F
:1001100080838081886080838C918D7F8C938C918B
:100120008E7F8C9381E19AE7909389008093880079
:10013000EFE680818260808308959091C00095FFF2
:10014000FCCF8093C6000895CF93DF93EC018881A4
:10015000811103C0DF91CF91089521960E949D00E7
:10016000F6CF1F920F920FB60F9211242F933F9349
:100170004F935F936F937F938F939F93AF93BF93AF
:10018000EF93FF9380E091E00E94A400FF91EF9134
:10019000BF91AF919F918F917F916F915F914F919F
:1001A0003F912F910F900FBE0F901F9018950E94B6
:1001B0004B000E9473008FB780688FBFFFCFF89409
:0201C000FFCF6F
:1001C20048656C6C6F20576F726C64210D0A0000D9
:00000001FF
