:100000000C9434000C943E000C943E000C943E0082
:100010000C943E000C943E000C943E000C943E0068
:100020000C943E000C943E000C943E000C943E0058
:100030000C943E000C943E000C943E000C943E0048
:100040000C943E000C943E000C943E000C943E0038
:100050000C943E000C943E000C943E000C943E0028
:100060000C943E000C943E0011241FBECFEFD8E04C
:10007000DEBFCDBF0E9440000C9471000C940000C4
:10008000209A219A229A249A529854985A9A5C9AC1
:1000900080E020E030E04A9916C02115310549F48E
:1000A000873120F48F5F883009F480E185B921E041
:1000B00030E04FEF59EF90E0415050409040E1F771
:1000C00000C00000E8CF4C990AC02115310589F71E
:1000D000811561F381508F3049F787E0E7CF20E049
:0600E000E7CFF894FFCF0A
:00000001FF
