:100000000C9434000C943E000C943E000C943E0082
:100010000C943E000C943E000C943E000C943E0068
:100020000C943E000C943E000C943E000C943E0058
:100030000C943E000C943E000C943E000C943E0048
:100040000C943E000C943E000C943E000C943E0038
:100050000C943E000C943E000C943E000C943E0028
:100060000C943E000C943E0011241FBECFEFD8E04C
:10007000DEBFCDBF0E9440000C9455000C940000E0
:10008000209A52985A9A81E091E0382F29B1832F13
:10009000392F41E022FD34278115C1F322FFF5CF2E
:0E00A00085B1892785B980E0F0CFF894FFCFB5
:00000001FF
