:100000000C9434000C943E000C943E000C943E0082
:100010000C943E000C943E000C943E000C943E0068
:100020000C943E000C943E000C943E000C943E0058
:100030000C943E000C943E000C943E000C943E0048
:100040000C943E000C943E000C943E000C943E0038
:100050000C943E000C943E000C943E000C943E0028
:100060000C943E000C943E0011241FBECFEFD8E04C
:10007000DEBFCDBF0E9440000C9489000C940000AC
:1000800084B1876184B98AB18B7E8AB98BB184616E
:100090008BB980E040E030E051E029B1247099B1A3
:1000A0009071311591F0352F61E022FD3627411511
:1000B000E1F0452F71E094FD472783FB992794F9E0
:1000C000282F2770922B95B9E8CF2111F0CF7FEF21
:1000D00029EF60E0715020406040E1F700C000006F
:1000E0004A99E5CF8F5F31E0E2CF9111E6CF9FEFE4
:1000F00029EF60E0915020406040E1F700C000002F
:100100004C99DBCF91E0811101C090E0891B41E067
:06011000D4CFF894FFCFEC
:00000001FF
