:100000000C9434000C943E000C943E000C943E0082
:100010000C943E000C943E000C943E000C943E0068
:100020000C943E000C943E000C943E000C943E0058
:100030000C943E000C943E000C943E000C943E0048
:100040000C943E000C943E000C943E000C943E0038
:100050000C943E000C943E000C943E000C943E0028
:100060000C943E000C943E0011241FBECFEFD8E04C
:10007000DEBFCDBF0E9440000C94BD000C94000078
:10008000CF93DF93CDB7DEB784E290E0FC0120810F
:1000900084E290E02260FC01208384E690E0FC0191
:1000A000208184E690E0277FFC01208383E490E0B8
:1000B000FC01208183E490E02160FC01208380E842
:1000C00090E0FC01208180E890E02064FC01208326
:1000D00080E890E0FC01208180E890E02F77FC012F
:1000E000208381E890E0FC01208181E890E02F7E70
:1000F000FC01208381E890E0FC01208181E890E010
:100100002860FC01208380E890E0FC01208180E8E9
:1001100090E02D7FFC01208380E890E0FC012081AD
:1001200080E890E02E7FFC01208381E890E0FC01D4
:10013000208181E890E02460FC01208381E890E048
:10014000FC01208181E890E02D7FFC01208381E883
:1001500090E0FC01208181E890E02160FC01208397
:1001600088E890E023E83EE1FC013183208384E8C5
:0E01700090E0FC0111821082FFCFF894FFCFC7
:00000001FF
