:100000000C9434000C9449000C9449000C94490061
:100010000C9449000C9449000C9449000C9449003C
:100020000C9449000C9449000C9449000C9449002C
:100030000C9449000C9449000C9449000C9449001C
:100040000C9449000C9449000C9449000C9449000C
:100050000C9449000C9449000C9449000C944900FC
:100060000C9449000C94490011241FBECFEFD8E036
:10007000DEBFCDBF11E0A0E0B1E0E8ECF3E002C0EC
:1000800005900D92A63EB107D9F70E949E010C94EF
:10009000E2010C940000AC0190E0FB01E90FF11DBE
:1000A0002081FA01E90FF11D211102C0108208958B
:1000B00020839F5FF2CF1092C50080E18093C4003F
:1000C000E1ECF0E0808188608083808180618083C2
:1000D000E2EC80818F77808380818F7B8083808139
:1000E0008F7D808380818F7E80838081877F8083E6
:1000F00080818B7F80838081846080838081826027
:100100008083E0EC80818260808308959091C000BC
:1001100095FFFCCF8093C6000895CF93DF93EC0149
:100120008881811103C0DF91CF91089521960E94AB
:100130008600F6CF8091C00087FFFCCF8091C6007B
:1001400008958AB188668AB9089585B58B7F85BD83
:1001500085B5826085BD85B58E7F85BD85B5877F78
:1001600085BD84B5826084BD84B5816084BD84B55D
:10017000806884BD84B58F7B84BD84B5806284BD76
:1001800084B58F7E84BDE1EBF0E080818B7F80833E
:1001900080818260808380818E7F80838081877F61
:1001A0008083E0EB808182608083808181608083B6
:1001B00080818062808380818F7E808316BC1092D4
:1001C000B200089588BD67BD4093B4000895982F8C
:1001D00080ED890F8A3070F08FE9890F863018F42E
:1001E00089EA890F08958FEB890F863010F489EC26
:1001F000F8CF80E008958F929F92AF92BF92CF92F6
:10020000DF92EF92FF920F931F93CF93DF9300D073
:100210000F92CDB7DEB77C0169831A82862F815099
:10022000990B4C01EA810E2F10E06401580108156A
:10023000190554F1F701EA0DFB1D108282E591E0EA
:100240000E948D00F7018081833209F068C0FA8135
:100250008981F81708F063C0F701319697E0E90E3D
:10026000F11C808190ED980F9A3028F08F7D815499
:10027000863008F054C03196EE15FF0591F7C01690
:10028000D106D1F511E04FC00E949A008B838F37C1
:1002900079F49A81911104C0640100E010E0F4CF78
:1002A00080E091E00E948D00EA81E150EA83BACFBC
:1002B000FB81FD3009F4BECFF701EA0DFB1D8B81F8
:1002C00080830E9486009A819F5F9A83ABCF111131
:1002D00013C08FE391E00F900F900F90DF91CF91BB
:1002E0001F910F91FF90EF90DF90CF90BF90AF9054
:1002F0009F908F900C948D00FA81F73051F70F90FA
:100300000F900F90DF91CF911F910F91FF90EF9081
:10031000DF90CF90BF90AF909F908F900895C016C0
:10032000D106B9F610E084E091E00E948D00EB81E7
:10033000ED3069F20E949A008D30FBCFCDB7DEB769
:100340002B970FB6F894DEBF0FBECDBF0E94A10061
:100350000E94A5000E945B008FEF88BD87BD80933F
:10036000B40085E591E00E948D006AE0CE0101961F
:100370000E94FB008A810E94E700082F8B810E9467
:10038000E7000295007F082B8C810E94E700182F60
:100390008D810E94E7001295107F182B8E810E949C
:1003A000E7008B878F810E94E7009B859295907F65
:1003B000982B08BD17BD9093B4008EE991E00E9480
:0803C0008D00CFCFF894FFCFB0
:1003C800082008004D6178206C656E67746820729B
:1003D8006561636865642120496E76616C69642093
:1003E800696E7075742E20507265737320456E7433
:1003F800657220746F2072657472792E0D0A004937
:100408006E76616C696420636F6C6F7220636F64D1
:1004180065210D0A005479706520636F6C6F722036
:10042800636F64652028666F726D61742023585865
:10043800585858582C20776974682058206865786F
:100448002E2076616C75652920616E642070726556
:10045800737320456E7465722E0D0A3E20002B2B97
:100468002B2B2B2B2B2B2B2B2B2B2B2B2B2B2B2BD4
:100478002B2B2B2B2B2B2B2B2B2B2B2B2B2B2B2BC4
:100488002B2B2B2B2B2B2B2B2B2B2B2B2B2B2B2BB4
:100498002B2B2B2B2B2B2B2B2B2B2B2B2B2B2B2BA4
:0604A8002B2B2B0D0A00B6
:00000001FF
