:100000000C9434000C943E000C943E000C943E0082
:100010000C943E000C943E000C943E000C943E0068
:100020000C943E000C943E000C943E000C943E0058
:100030000C943E000C943E000C943E000C943E0048
:100040000C943E000C943E000C943E000C943E0038
:100050000C943E000C943E000C943E000C943E0028
:100060000C943E000C943E0011241FBECFEFD8E04C
:10007000DEBFCDBF0E946E000C947F000C94000088
:100080009093C5008093C400E1ECF0E0808188602B
:100090008083E2EC80818F77808380818F7B808377
:1000A00080818F7D808380818F7E80838081877F28
:1000B000808380818B7F8083808184608083808146
:1000C00082608083E0EC80818260808308959091DB
:1000D000C00095FFFCCF8093C600089580E190E0BA
:1000E0000E9440008AE50E9467002FEF83ED90E3B5
:1000F000215080409040E1F700C00000F3CFF89419
:02010000FFCF2F
:00000001FF
