:100000000C9434000C943E000C943E000C943E0082
:100010000C943E000C943E000C943E000C943E0068
:100020000C943E000C943E000C943E000C943E0058
:100030000C943E000C943E000C943E000C943E0048
:100040000C943E000C943E000C943E000C943E0038
:100050000C943E000C943E000C943E000C943E0028
:100060000C943E000C943E0011241FBECFEFD8E04C
:10007000DEBFCDBF0E94B2000C94C2000C94000001
:100080008AB188668AB9089585B58B7F85BD85B5A7
:10009000826085BD85B58E7F85BD85B5877F85BD31
:1000A00084B5826084BD84B5816084BD84B5806878
:1000B00084BD84B58F7B84BD84B5806284BD84B5E6
:1000C0008F7E84BDE1EBF0E080818B7F8083808137
:1000D0008260808380818E7F80838081877F808320
:1000E000E0EB808182608083808181608083808179
:1000F0008062808380818F7E808316BC1092B200E4
:10010000089588BD67BD4093B4000895982F9095D9
:10011000953550F4892F880F890F982F909598BDA9
:1001200017BC8093B40008959A3A70F49AEA981B29
:10013000892F990F990F891B9FEF980F819518BCF4
:1001400087BD9093B400089595E5981B892F990F6A
:10015000990F891B9FEF980F819588BD97BD1092CD
:10016000B40008950E9440000E944400C0E0CF5FA8
:100170008C2F0E9486008FE39CE90197F1F700C065
:080180000000F5CFF894FFCF59
:00000001FF
