:100000000C9434000C943E000C943E000C943E0082
:100010000C943E000C943E000C943E000C943E0068
:100020000C943E000C943E000C943E000C943E0058
:100030000C943E000C943E000C943E000C943E0048
:100040000C943E000C943E000C943E000C943E0038
:100050000C943E000C943E000C943E000C943E0028
:100060000C943E000C943E0011241FBECFEFD8E04C
:10007000DEBFCDBF0E9440000C94E1000C94000054
:10008000CF93DF93CDB7DEB784E290E0FC0120810F
:1000900084E290E02260FC01208384E690E0FC0191
:1000A000208184E690E0277FFC01208383E490E0B8
:1000B000FC01208183E490E02160FC01208381E841
:1000C00090E0FC01208181E890E02460FC01208325
:1000D00081E890E0FC01208181E890E02D7FFC0127
:1000E000208381E890E0FC01208181E890E021609C
:1000F000FC01208381E890E0FC01208181E890E010
:100100002061FC01208381E890E0FC01208181E8EE
:1001100090E0277FFC01208380E890E0FC012081B3
:1001200080E890E02260FC01208380E890E0FC0100
:10013000208180E890E02E7FFC01208380E890E021
:10014000FC01208180E890E02F7BFC01208380E887
:1001500090E0FC01208180E890E02068FC01208391
:1001600086E890E023E83EE1FC013183208386E8C5
:1001700090E0FC018081918148E850E09C01ADEC69
:10018000BCEC0E94D200969587959695879596959A
:100190008795FA019183808384E890E0FC011182C5
:1001A0001082FFCFA29FB001B39FC001A39F700D2B
:1001B000811D1124911DB29F700D811D1124911D6F
:0601C0000895F894FFCF42
:00000001FF
