:100000000C9434000C9449000C9449000C94490061
:100010000C9449000C9449000C9449000C9449003C
:100020000C9449000C9449000C9449000C9449002C
:100030000C9449000C9449000C9449000C9449001C
:100040000C9449000C9449000C9449000C9449000C
:100050000C9449000C9449000C9449000C944900FC
:100060000C9449000C94490011241FBECFEFD8E036
:10007000DEBFCDBF11E0A0E0B1E0EAEFF0E002C0EA
:1000800005900D92A430B107D9F70E9476000C9428
:100090007B000C9400008AB188668AB90895CF93DA
:1000A000DF9300D00F92CDB7DEB780910001909121
:1000B0000101A091020189839A83AB83FE013196ED
:1000C000CE01049621912BB92FEF33ED40E321505F
:1000D00030404040E1F700C00000E817F90791F711
:1000E0000F900F900F90DF91CF9108950E944B00D9
:0A00F0000E944F00FDCFF894FFCFEF
:0400FA00204008009A
:00000001FF
