:100000000C9434000C9449000C9449000C94490061
:100010000C9449000C9449000C9449000C9449003C
:100020000C9449000C9449000C9449000C9449002C
:100030000C9449000C9449000C9449000C9449001C
:100040000C9449000C9449000C9449000C9449000C
:100050000C9449000C9449000C9449000C944900FC
:100060000C9449000C94490011241FBECFEFD8E036
:10007000DEBFCDBF11E0A0E0B1E0E6E6F1E002C0F6
:1000800005900D92A430B107D9F70E9491000C940D
:10009000B1000C9400001092C50080E18093C40070
:1000A000E1ECF0E0808188608083808180618083E2
:1000B000E2EC80818F77808380818F7B8083808159
:1000C0008F7D808380818F7E80838081877F808306
:1000D00080818B7F80838081846080838081826047
:1000E0008083E0EC80818260808308959091C000DD
:1000F00095FFFCCF8093C6000895CF93DF93EC016A
:100100008881811103C0DF91CF91089521960E94CB
:100110007600F6CF8091C00087FFFCCF8091C600AB
:1001200008950E944B00E12CF12C67010E948A0087
:10013000C82F8032D8F30E947600C601D7010196FD
:10014000A11DB11DCF3751F410979040804031F080
:1001500080E091E00E947D00C601D7016C017D0125
:06016000E5CFF894FFCF8B
:040166000820080065
:00000001FF
