:100000000C9434000C943E000C943E000C943E0082
:100010000C943E000C943E000C943E000C943E0068
:100020000C943E000C943E000C943E000C943E0058
:100030000C943E000C943E000C943E000C943E0048
:100040000C943E000C943E000C943E000C943E0038
:100050000C943E000C943E000C943E000C943E0028
:100060000C943E000C943E0011241FBECFEFD8E04C
:10007000DEBFCDBF0E9440000C9436010C940000FE
:10008000219A8AB18B7E8AB98BB184618BB98091B8
:100090006400877F809364008091810084608093F6
:1000A0008100809181008D7F80938100809181000B
:1000B00081608093810080918100806180938100C4
:1000C00080918100886080938100809180008260AF
:1000D00080938000809180008E7F8093800080914B
:1000E00080008F7B80938000809180008068809367
:1000F000800088E09DE390938700809386002091A4
:10010000860030918700AAE0B0E00E94FA0024E661
:1001100030E040E050E00E940901309389002093D4
:100120008800109285001092840080E090E07C01AD
:100130002AE0C22ED12C11E0C9B1C470D9B1D0715E
:10014000811501F1212F31E0C2FD2327C22F911526
:10015000A9F1312F81E0D4FD3827D32FA09186005B
:10016000B09187009601A7010E942B0124E630E0A0
:1001700040E050E00E9409013093890020938800FC
:10018000CE01DACFC11118C08FEF29EF30E08150D6
:1001900020403040E1F700C000004A99D8CF8BE5FD
:1001A000C816D104E104F10428F42AE0C20ED11CDF
:1001B000E11CF11CC1E0CBCFC0E0C9CFD11118C008
:1001C0009FEF29EF30E0915020403040E1F700C030
:1001D00000004C99C3CF8AE0C816D104E104F104B1
:1001E00028F09AE0C91AD108E108F108D1E0B6CFA9
:1001F000D0E0B4CFA29FB001B39FC001A39F700D08
:10020000811D1124911DB29F700D811D1124911D1E
:100210000895A1E21A2EAA1BBB1BFD010DC0AA1F47
:10022000BB1FEE1FFF1FA217B307E407F50720F05F
:10023000A21BB30BE40BF50B661F771F881F991FDA
:100240001A9469F760957095809590959B01AC0123
:10025000BD01CF0108950E94FA00A59F900DB49FA3
:10026000900DA49F800D911D11240895F894FFCF47
:00000001FF
