:100000000C9434000C943E000C943E000C943E0082
:100010000C943E000C943E000C943E000C943E0068
:100020000C943E000C943E000C943E000C943E0058
:100030000C943E000C943E000C943E000C943E0048
:100040000C943E000C943E000C943E000C943E0038
:100050000C943E000C943E000C943E000C943E0028
:100060000C943E000C943E0011241FBECFEFD8E04C
:10007000DEBFCDBF0E9440000C9486000C940000AF
:10008000CF93DF93CDB7DEB728970FB6F894DEBFD6
:100090000FBECDBF84E290E0FC01208184E290E0BD
:1000A0002260FC01208319821A821B821C8280E458
:1000B0009DE0A3E0B0E08D839E83AF83B887898104
:1000C0009A81AB81BC810196A11DB11D89839A8360
:1000D000AB83BC8349815A816B817C818D819E81F8
:1000E000AF81B885481759076A077B0741F785E252
:1000F00090E0FC01308185E290E022E02327FC01C2
:10010000208319821A821B821C82D9CFF894FFCFD8
:00000001FF
